:100000000C948A000C94BB000C94BB000C94BB00B5
:100010000C94BB000C944C010C9427010C94BB0075
:100020000C94BB000C94BB000C94BB000C94BB0064
:100030000C94BB000C94BB000C94BB000C94BB0054
:100040000C94BB000C94BB000C94BB000C94BB0044
:100050000C94BB000C94BB000C94BB000C94BB0034
:100060000C94BB000C94B9050C94BB000C94BB0021
:100070000C94BB000C94BB000C94BB000C94BB0014
:100080000C94BB000C94BB000C94BB000C94BB0004
:100090000C94BB000C94BB000C94BB000C94BB00F4
:1000A0000C94BB000C94BB000C94BB000C94BB00E4
:1000B0000C94BB000C94BB000C94BB000C94BB00D4
:1000C0000C94BB000C94BB000C94BB000C94BB00C4
:1000D0000C94BB000C94BB000C94BB000C94BB00B4
:1000E0000C94BB00084AD73B3BCE016E84BCBFFDDD
:1000F000C12F3D6C74319ABD56833DDA3D00C77FF8
:1001000011BED9E4BB4C3E916BAAAABE0000008090
:100110003F008D0711241FBECFEFD1E2DEBFCDBF60
:1001200000E00CBF12E0A0E0B2E0E4EAF5E100E09C
:100130000BBF02C007900D92A430B107D9F712E0AF
:10014000A4E0B2E001C01D92A433B107E1F711E0D1
:10015000C4E1D1E000E006C022970109FE010BBF17
:100160000E94CC0AC231D10780E00807A9F70E949B
:100170007C070C94D00A0C94000081B18F6081B987
:1001800082B1807F82B9EAE0F1E08081886180837A
:10019000EBE0F1E0808188618083089592B1907FE7
:1001A0008F70982B92B9089586E00E94CE00089532
:1001B00089E00E94CE00089585E00E94CE00089557
:1001C0008AE00E94CE00089584E00E94CE00089547
:1001D00082E00E94CE00089581E00E94CE00089542
:1001E00088E00E94CE00089580E00E94CE0008952D
:1001F000E1E2F1E0108289EA809320018FEF8093A1
:100200002501109224011092280110922A018BE0FE
:10021000808308958093280160932A0108956C9843
:10022000749A08956D98759A0895F894EAE6F0E046
:10023000808182608083EC9A78940895F894EAE64D
:10024000F0E0808188608083ED9A789408951F9211
:100250000F920FB60F9211248F939F93AF93BF937A
:1002600080912C0290912D02A0912E02B0912F022C
:100270000196A11DB11D80932C0290932D02A09395
:100280002E02B0932F02BF91AF919F918F910F904B
:100290000FBE0F901F9018951F920F920FB60F92DE
:1002A00011248F939F93AF93BF93809130029091CD
:1002B0003102A0913202B09133020196A11DB11D0D
:1002C0008093300290933102A0933202B0933302B4
:1002D000BF91AF919F918F910F900FBE0F901F9084
:1002E00018950E940F010E9412010E9415010E94A0
:1002F0001E0108950F931F93CF93BC0180E090E0FF
:100300000E942D0920E030E040E85EE30E940F0AE1
:100310000E940109DC01CB01A0E0B0E010922C02A8
:1003200010922D0210922E0210922F021092300283
:10033000109231021092320210923302F1E0C0E0CA
:1003400040912C0250912D0260912E0270912F024B
:10035000009130021091310220913202309133022B
:10036000EF2F481759076A077B0708F4EC2FEE2395
:1003700049F44F2F081719072A073B0708F44C2F99
:100380004423F1F20E94F400CF911F910F91089540
:10039000BC0180E090E00E942D092BE734E14EEA99
:1003A00050E40E9499080E940109462F572F682F98
:1003B000792F10922C0210922D0210922E02109280
:1003C0002F0280912C0290912D02A0912E02B091CB
:1003D0002F02481759076A077B0798F70E94F40015
:1003E0000895CF93DF93EC010E94D400CE010E94C8
:1003F000C801DF91CF910895CF93DF93EC010E9464
:10040000D800CE010E94C801DF91CF910895CF930B
:10041000DF93EC010E94DC00CE010E947A01DF91A3
:10042000CF910895CF93DF93EC010E94E000CE01BD
:100430000E947A01DF91CF910895CF93DF93EC0171
:100440000E94E400CE01880F991F0E947A01DF917B
:10045000CF910895CF93DF93EC010E94E800CE0185
:10046000880F991F0E947A01DF91CF910895CF9351
:10047000DF93EC010E94EC00CE01880F991F0E94CF
:100480007A01DF91CF910895CF93DF93EC010E9421
:10049000F000CE01880F991F0E947A01DF91CF9161
:1004A00008954F925F926F927F928F929F92AF9238
:1004B000BF92CF92DF92EF92FF920F931F93CF9351
:1004C000DF93CDB7DEB760970FB6F894DEBF0FBEEF
:1004D000CDBF29833A834B835C836D837E838F8377
:1004E0009887A986BA86CB86DC86ED86FE860F873E
:1004F000188B69857A858B859C8529813A814B810A
:100500005C810E949508882331F56D857E858F85F5
:1005100098892D813E814F8158850E9495088823B6
:1005200009F4AEC06D857E858F8598892D813E81C9
:100530004F8158850E94040A1816F4F16D857E8556
:100540008F8598892D813E814F8158850E9495081D
:100550008823ECF146C06D857E858F8598892D8135
:100560003E814F815885C984DA84EB84FC844980BC
:100570005A806B807C800E94CE074B015C01C701D2
:10058000B601A30192010E94CE079B01AC01C501F7
:10059000B4010E94420820E030E044E353E40E94AA
:1005A0000F0A29EF3FE049E450E40E949908962E93
:1005B000872E782E692E15C0992488240F2EF4EBEF
:1005C0007F2EF02D0F2EF2E46F2EF02D0AC099240D
:1005D00088240F2EF4EB7F2EF02D0F2EF2EC6F2ED1
:1005E000F02D6CA17DA18EA19FA1092D182D272D85
:1005F000362DA90198010E94CE07D62EC72EE62ED1
:10060000F72E082F192F862F9C2DA02FB12FBC015C
:10061000CD0120E030E044E353EC0E9495088823AC
:1006200084F48D2D9C2DA02FB12FBC01CD0120E095
:1006300030E044EB53E40E94CF07E62EF72E082F5C
:10064000192F8E2D9F2DA02FB12FBC01CD0120E0A1
:1006500030E044E353E40E94040A1816ACF48E2DF3
:100660009F2DA02FB12FBC01CD0120E030E044EB45
:1006700053E40E94CE07E62EF72E082F192F04C050
:10068000EE24FF2400E010E08E2D9F2DA02FB12F2F
:10069000BC01CD0160960FB6F894DEBF0FBECDBF92
:1006A000DF91CF911F910F91FF90EF90DF90CF904E
:1006B000BF90AF909F908F907F906F905F904F9082
:1006C0000895AF92BF92CF92DF92EF92FF920F9375
:1006D0001F93CF93DF93CDB7DEB760970FB6F89433
:1006E000DEBF0FBECDBF29833A834B835C836D830E
:1006F0007E838F839887A986BA86CB86DC86ED8633
:10070000FE860F87188B69817A818B819C81298570
:100710003A854B855C850E94CE079B01AC010E9407
:100720000F0A062F172FF82EE92E6D817E818F81FB
:1007300098852D853E854F8558890E94CE079B015F
:10074000AC010E940F0AB62FA72F382F292F402F58
:10075000512F6F2D7E2DCB01BA01422F0B2F1A2F57
:10076000232F342FA90198010E94CF070E94760AF7
:10077000462F572F682F792FCB01BA0160960FB6FD
:10078000F894DEBF0FBECDBFDF91CF911F910F91C7
:10079000FF90EF90DF90CF90BF90AF9008954F9271
:1007A0005F926F927F928F929F92AF92BF92CF9201
:1007B000DF92EF92FF920F931F93CF93DF93CDB70A
:1007C000DEB760970FB6F894DEBF0FBECDBF2983AA
:1007D0003A834B835C836D837E838F839887A9865E
:1007E000BA86CB86DC86ED86FE860F87188B840161
:1007F00069857A858B859C8529813A814B815C81CD
:100800000E949508882391F56D857E858F8598894E
:100810002D813E814F8158850E949508882309F4D7
:1008200058C06D857E858F8598892D813E814F8149
:1008300058850E94CE0720E030E0A9010E94040AFA
:10084000181654F480E090E0A4EBB2E4F401808345
:100850009183A283B3833DC080E090E0A4EBB2EC2F
:10086000F40180839183A283B38333C06D857E8539
:100870008F8598892D813E814F81588589849A84FE
:10088000AB84BC8449805A806B807C800E94CE07F8
:100890006B017C01C501B401A30192010E94CE0746
:1008A0009B01AC01C701B6010E94420820E030E084
:1008B00044E353E40E940F0A29EF3FE049E450E487
:1008C0000E949908DC01CB01F80180839183A28307
:1008D000B38360960FB6F894DEBF0FBECDBFDF9135
:1008E000CF911F910F91FF90EF90DF90CF90BF902D
:1008F000AF909F908F907F906F905F904F900895F2
:100900004F925F926F927F92AF92BF92CF92DF929F
:10091000EF92FF920F931F93CF93DF93CDB7DEB784
:1009200060970FB6F894DEBF0FBECDBF29833A8320
:100930004B835C836D837E838F839887A986BA8679
:10094000CB86DC86ED86FE860F87188B4AA05BA0DF
:100950006CA07DA000D00F92ADB7BEB711964D929E
:100960005D926D927C92149729813A814B815C81D2
:100970006D817E818F819885A984BA84CB84DC8443
:10098000ED84FE840F8518890E9451020F900F900C
:100990000F900F9020E030E0A9010E94040A181681
:1009A0002CF500D00F92EDB7FEB7418252826382E0
:1009B000748229813A814B815C816D817E818F8136
:1009C0009885A984BA84CB84DC84ED84FE840F8569
:1009D00018890E9451020F900F900F900F900E9463
:1009E0000109DC01CB010E94120227C000D00F9246
:1009F000ADB7BEB711964D925D926D927C921497F1
:100A000029813A814B815C816D817E818F819885BE
:100A1000A984BA84CB84DC84ED84FE840F85188994
:100A20000E9451020F900F900F900F9090580E94CB
:100A30000109DC01CB010E9407028FEF9FEFA8E0C4
:100A400081509040A040E1F700C0000029813A8128
:100A50004B815C816D817E818F819885A984BA8468
:100A6000CB84DC84ED84FE840F8518890E946103A9
:100A70000E940109DC01CB010E94F10160960FB6D2
:100A8000F894DEBF0FBECDBFDF91CF911F910F91C4
:100A9000FF90EF90DF90CF90BF90AF907F906F90DE
:100AA0005F904F900895E1ECF0E010821092C0004A
:100AB00086E08093C2008FE58093C4001092C50049
:100AC00088E98083089583E0809389008FEF809385
:100AD0008800089510928900682F70E080E090E00F
:100AE0000E942D092BE734E14EEE5FE30E94990846
:100AF00020E030E04CE052E40E94CF070E94010960
:100B0000609388000895259A2D9A0895E1E8F0E011
:100B100010828CEF8093850081E08093840093E0C5
:100B2000909389008FEF8093880090938B0080933F
:100B30008A0090938D0080938C009093870080931F
:100B400086008BEA80938000109282008CE0808384
:100B5000089588E70E946A0508958DE50E946A0558
:100B6000089586B1886088B9089586B1877F88B96D
:100B700008951F920F920FB60F920BB60F92112489
:100B80008F929F92AF92BF92CF92DF92EF92FF929D
:100B90000F931F932F933F934F935F936F937F9385
:100BA0008F939F93AF93BF93EF93FF936091C60092
:100BB0006093290280911702909118020097A1F486
:100BC00081E090E090931802809317020E94B10593
:100BD0008FEF9FE7A4E081509040A040E1F700C074
:100BE00000000E94B5055EC18130910521F56623A4
:100BF00039F482E090E0909318028093170252C17A
:100C0000613059F478940E94A90582E090E09093B5
:100C1000180280931702F89445C1623009F042C16E
:100C200078940E94AD0582E090E090931802809342
:100C30001702F89437C182309105B1F470E080E07A
:100C400090E00E942D09DC01CB0180932502909356
:100C50002602A0932702B093280283E090E09093AD
:100C60001802809317021EC18330910511F561307F
:100C7000C9F420912502309126024091270250911B
:100C8000280260E070E08FE793E40E94CE07DC0169
:100C9000CB01B0588093250290932602A09327029F
:100CA000B093280284E090E090931802809317029A
:100CB000F9C084309105B1F470E080E090E00E94CA
:100CC0002D09DC01CB018093210290932202A09395
:100CD0002302B093240285E090E090931802809361
:100CE0001702E0C08530910509F0DCC00E94B10513
:100CF0008FEF9FE7A4E081509040A040E1F700C053
:100D000000000E94B505809129028130C9F420912C
:100D1000210230912202409123025091240260E08E
:100D200070E08FE793E40E94CE07DC01CB01B0585E
:100D30008093210290932202A0932302B093240275
:100D400080911D0290911E02A0911F02B09120027D
:100D500080930D0290930E02A0930F02B0931002A5
:100D60008091190290911A02A0911B02B0911C026D
:100D70008093110290931202A0931302B093140275
:100D80008091250290912602A0912702B09128021D
:100D90008093050290930602A0930702B093080285
:100DA0008091210290912202A0912302B09124020D
:100DB0008093090290930A02A0930B02B0930C0255
:100DC000789400D00F928091000290910102A0913E
:100DD0000202B0910302EDB7FEB781839283A38331
:100DE000B48320910D0230910E0240910F02509178
:100DF0001002609111027091120280911302909181
:100E00001402A0900502B0900602C0900702D09094
:100E10000802E0900902F0900A0200910B02109182
:100E20000C020E9480040F900F900F900F90209161
:100E30000D0230910E0240910F025091100260910C
:100E40001102709112028091130290911402A090ED
:100E50000502B0900602C0900702D0900802E09010
:100E60000902F0900A0200910B0210910C020F2E61
:100E7000F0E08F2EF2E09F2EF02D0E94CF0381E054
:100E800090E090931802809317028091290280933A
:100E9000C6008FEF9FE7A4E081509040A040E1F7AB
:100EA00000C00000809129028093C6008FEF9FE769
:100EB000A4E081509040A040E1F700C00000FF9105
:100EC000EF91BF91AF919F918F917F916F915F91C2
:100ED0004F913F912F911F910F91FF90EF90DF90D5
:100EE000CF90BF90AF909F908F900F900BBE0F90C0
:100EF0000FBE0F901F901895F8943B9A43980E944C
:100F0000BD000E9471010E9453050E9486050E9447
:100F1000830578940E94A905FFCF80911D029091CE
:100F20001E02A0911F02B091200280930D029093A7
:100F30000E02A0930F02B0931002809119029091BB
:100F40001A02A0911B02B0911C028093110290938F
:100F50001202A0931302B093140280912502909183
:100F60002602A0912702B091280280930502909357
:100F70000602A0930702B09308028091210290918B
:100F80002202A0912302B09124028093090290933F
:100F90000A02A0930B02B0930C0208955058BB278D
:100FA000AA270ED0F7C1E8D130F0EDD120F031F40E
:100FB0009F3F11F41EF4B8C10EF4E095E7FBAEC1FB
:100FC000E92FF9D180F3BA176207730784079507F1
:100FD00018F071F49EF511C20EF4E0950B2EBA2FA5
:100FE000A02D0B01B90190010C01CA01A00111242F
:100FF000FF27591B99F0593F50F4503E68F11A16DB
:10100000F040A22F232F342F4427585FF3CF46956B
:1010100037952795A795F0405395C9F77EF41F168D
:10102000BA0B620B730B840BBAF09150A1F0FF0F57
:10103000BB1F661F771F881FC2F70EC0BA0F621F43
:10104000731F841F48F4879577956795B795F79533
:101050009E3F08F0B3CF9395880F08F09927EE0FC5
:1010600097958795089588D158F080E891E009F424
:101070009EEF89D128F040E851E059F45EEF09C0B5
:1010800053C1BBC1E92FE07896D168F3092E052A38
:10109000C1F3261737074807590738F00E2E07F80F
:1010A000E02569F0E025E0640AC0EF6307F80094EA
:1010B00007FADB01B9019D01DC01CA01AD01EF9323
:1010C00047D068D10AD05F91552331F02BED3FE036
:1010D00049E450FD49EC63CF0895DF93DD27B92F34
:1010E000BF7740E85FE31616170648075B0710F462
:1010F000D92F8ED19F938F937F936F9335D2E4EE48
:10110000F0E015D147D12F913F914F915F9193D14D
:10111000DD2349F09058A2EA2AED3FE049EC5FE375
:10112000D0785D274DDFDF9135C1D4D008F481E060
:1011300008950CD02FC127D140F01ED130F021F4FA
:101140005F3F19F0EBC0511159C1EEC034D198F393
:101150009923C9F35523B1F3951B550BBB27AA2738
:1011600062177307840738F09F5F5F4F220F331FAA
:10117000441FAA1FA9F333D00E2E3AF0E0E830D076
:1011800091505040E695001CCAF729D0FE2F27D079
:10119000660F771F881FBB1F261737074807AB0747
:1011A000B0E809F0BB0B802DBF01FF2793585F4FBC
:1011B0002AF09E3F510568F0B1C020C15F3FECF3BB
:1011C000983EDCF3869577956795B795F7959F5F81
:1011D000C9F7880F911D9695879597F90895E1E0D5
:1011E000660F771F881FBB1F621773078407BA0734
:1011F00020F0621B730B840BBA0BEE1F88F7E0958F
:101200000895E1D088F09F5790F0B92F9927B751F2
:10121000A0F0D1F0660F771F881F991F1AF0BA95BA
:10122000C9F712C0B13081F0E8D0B1E00895E5C04F
:10123000672F782F8827B85F39F0B93FCCF38695B0
:1012400077956795B395D9F73EF49095809570950D
:1012500061957F4F8F4F9F4F0895E89409C097FB8A
:101260003EF490958095709561957F4F8F4F9F4F7D
:101270009923A9F0F92F96E9BB279395F6958795C1
:1012800077956795B795F111F8CFFAF4BB0F11F484
:1012900060FF1BC06F5F7F4F8F4F9F4F16C088232B
:1012A00011F096E911C0772321F09EE8872F762F61
:1012B00005C0662371F096E8862F70E060E02AF0A2
:1012C0009A95660F771F881FDAF7880F969587958E
:1012D00097F90895990F0008550FAA0BE0E8FEEF63
:1012E00016161706E807F907C0F012161306E407EA
:1012F000F50798F0621B730B840B950B39F40A26E3
:1013000061F0232B242B252B21F408950A2609F4C0
:10131000A140A6958FEF811D811D089597F99F67C4
:1013200080E870E060E008959FEF80EC0895DF931F
:10133000CF931F930F93FF92EF92DF927B018C016B
:10134000689405C0DA2EEF0176D0FE01E894A591ED
:101350002591359145915591AEF3EF0131DEFE01B6
:101360009701A801DA9479F7DF90EF90FF900F9141
:101370001F91CF91DF91089500240A941616170645
:1013800018060906089500240A9412161306140676
:1013900005060895092E0394000C11F4882352F0D9
:1013A000BB0F40F4BF2B11F460FF04C06F5F7F4F91
:1013B0008F4F9F4F089557FD9058440F551F59F078
:1013C0005F3F71F04795880F97FB991F61F09F3F32
:1013D00079F087950895121613061406551FF2CF5B
:1013E0004695F1DF08C0161617061806991FF1CFAB
:1013F00086957105610508940895E894BB276627D2
:101400007727CB0197F9089565DF08F48FEF0895EA
:101410009B01AC0160E070E080E89FE38ACE0BD0D6
:10142000B9CFAADF28F0AFDF18F0952309F076CF07
:101430007BCF1124E3CFBFDFA0F3959FD1F3950FAE
:1014400050E0551F629FF001729FBB27F00DB11D48
:10145000639FAA27F00DB11DAA1F649F6627B00DD8
:10146000A11D661F829F2227B00DA11D621F739FC1
:10147000B00DA11D621F839FA00D611D221F749FCF
:101480003327A00D611D231F849F600D211D822F16
:10149000762F6A2F11249F5750408AF0E1F088235D
:1014A0004AF0EE0FFF1FBB1F661F771F881F91506A
:1014B0005040A9F79E3F510570F030CF9FCF5F3F5E
:1014C000ECF3983EDCF3869577956795B795F7959D
:1014D000E7959F5FC1F7FE2B880F911D9695879525
:1014E00097F9089511F40EF41FCF41C06CDFD0F3CB
:1014F0009923D9F3CEF39F57550B87FF46D000248D
:10150000A0E640EA900180585695979528F4805CB3
:10151000660F771F881F20F026173707480730F41B
:10152000621B730B840B202931294A2BA695179433
:101530000794202531254A2758F7660F771F881F03
:1015400020F026173707480730F4620B730B840B23
:10155000200D311D411DA09581F7B901842F9158AF
:10156000880F9695879508959B01AC0158CF9F3FB2
:1015700031F0915020F4879577956795B795880F4E
:10158000911D9695879597F9089591505040660F53
:10159000771F881FD2F708950790F691E02D1994D0
:0415A000F894FFCFED
:0415A4000000B4424D
:00000001FF
